{
  "contractName": "Loteria",
  "abi": [
    {
      "inputs": [],
      "stateMutability": "nonpayable",
      "type": "constructor"
    },
    {
      "anonymous": false,
      "inputs": [
        {
          "indexed": false,
          "internalType": "uint256",
          "name": "",
          "type": "uint256"
        },
        {
          "indexed": false,
          "internalType": "address",
          "name": "",
          "type": "address"
        }
      ],
      "name": "buyedTicket",
      "type": "event"
    },
    {
      "anonymous": false,
      "inputs": [
        {
          "indexed": false,
          "internalType": "uint256",
          "name": "",
          "type": "uint256"
        },
        {
          "indexed": false,
          "internalType": "address",
          "name": "",
          "type": "address"
        }
      ],
      "name": "returnedTokens",
      "type": "event"
    },
    {
      "anonymous": false,
      "inputs": [
        {
          "indexed": false,
          "internalType": "uint256",
          "name": "",
          "type": "uint256"
        },
        {
          "indexed": false,
          "internalType": "address",
          "name": "",
          "type": "address"
        }
      ],
      "name": "tokensBuyed",
      "type": "event"
    },
    {
      "anonymous": false,
      "inputs": [
        {
          "indexed": false,
          "internalType": "uint256",
          "name": "",
          "type": "uint256"
        }
      ],
      "name": "winnerTicket",
      "type": "event"
    },
    {
      "inputs": [],
      "name": "contrato",
      "outputs": [
        {
          "internalType": "address",
          "name": "",
          "type": "address"
        }
      ],
      "stateMutability": "view",
      "type": "function"
    },
    {
      "inputs": [],
      "name": "ownerBote",
      "outputs": [
        {
          "internalType": "address",
          "name": "",
          "type": "address"
        }
      ],
      "stateMutability": "view",
      "type": "function"
    },
    {
      "inputs": [],
      "name": "ticketPrice",
      "outputs": [
        {
          "internalType": "uint256",
          "name": "",
          "type": "uint256"
        }
      ],
      "stateMutability": "view",
      "type": "function"
    },
    {
      "inputs": [
        {
          "internalType": "uint256",
          "name": "_numTokens",
          "type": "uint256"
        }
      ],
      "name": "addTokens",
      "outputs": [],
      "stateMutability": "nonpayable",
      "type": "function"
    },
    {
      "inputs": [],
      "name": "getBalanceContrato",
      "outputs": [
        {
          "internalType": "uint256",
          "name": "",
          "type": "uint256"
        }
      ],
      "stateMutability": "view",
      "type": "function"
    },
    {
      "inputs": [
        {
          "internalType": "address",
          "name": "_propietario",
          "type": "address"
        },
        {
          "internalType": "uint256",
          "name": "_numTokens",
          "type": "uint256"
        }
      ],
      "name": "buyTokens",
      "outputs": [],
      "stateMutability": "payable",
      "type": "function"
    },
    {
      "inputs": [],
      "name": "getBalanceBote",
      "outputs": [
        {
          "internalType": "uint256",
          "name": "",
          "type": "uint256"
        }
      ],
      "stateMutability": "view",
      "type": "function"
    },
    {
      "inputs": [
        {
          "internalType": "address",
          "name": "_propietario",
          "type": "address"
        }
      ],
      "name": "getBalanceMisTokens",
      "outputs": [
        {
          "internalType": "uint256",
          "name": "",
          "type": "uint256"
        }
      ],
      "stateMutability": "view",
      "type": "function"
    },
    {
      "inputs": [
        {
          "internalType": "uint256",
          "name": "_numTickets",
          "type": "uint256"
        }
      ],
      "name": "buyTicket",
      "outputs": [],
      "stateMutability": "nonpayable",
      "type": "function"
    },
    {
      "inputs": [],
      "name": "getMisTickets",
      "outputs": [
        {
          "internalType": "uint256[]",
          "name": "",
          "type": "uint256[]"
        }
      ],
      "stateMutability": "view",
      "type": "function"
    },
    {
      "inputs": [],
      "name": "generateWinner",
      "outputs": [],
      "stateMutability": "nonpayable",
      "type": "function"
    },
    {
      "inputs": [
        {
          "internalType": "uint256",
          "name": "_numTokens",
          "type": "uint256"
        }
      ],
      "name": "returnTokens",
      "outputs": [],
      "stateMutability": "payable",
      "type": "function"
    }
  ],
  "bytecode": "0x6080604052612710600355600560045560006007553480156200002157600080fd5b50600354604051620000339062000124565b6200003f919062000143565b604051809103906000f0801580156200005c573d6000803e3d6000fd5b506000806101000a81548173ffffffffffffffffffffffffffffffffffffffff021916908373ffffffffffffffffffffffffffffffffffffffff16021790555033600160006101000a81548173ffffffffffffffffffffffffffffffffffffffff021916908373ffffffffffffffffffffffffffffffffffffffff16021790555030600260006101000a81548173ffffffffffffffffffffffffffffffffffffffff021916908373ffffffffffffffffffffffffffffffffffffffff1602179055506200016a565b6113eb80620019b883390190565b6200013d8162000160565b82525050565b60006020820190506200015a600083018462000132565b92915050565b6000819050919050565b61183e806200017a6000396000f3fe6080604052600436106100a75760003560e01c806367dd74ca1161006457806367dd74ca1461017c5780636b2afdf4146101a5578063ae6949a2146101d0578063b25a5f0b1461020d578063c6ed899014610238578063e1a01e6714610261576100a7565b80630752881a146100ac5780630fdc3982146100c85780631209b1f6146100f3578063188af6571461011e5780633ae1786f146101355780635501c30b14610151575b600080fd5b6100c660048036038101906100c19190611057565b61028c565b005b3480156100d457600080fd5b506100dd610462565b6040516100ea919061153f565b60405180910390f35b3480156100ff57600080fd5b506101086104f7565b6040516101159190611641565b60405180910390f35b34801561012a57600080fd5b506101336104fd565b005b61014f600480360381019061014a91906110bc565b610761565b005b34801561015d57600080fd5b5061016661094d565b60405161017391906114c4565b60405180910390f35b34801561018857600080fd5b506101a3600480360381019061019e91906110bc565b610973565b005b3480156101b157600080fd5b506101ba610c26565b6040516101c79190611641565b60405180910390f35b3480156101dc57600080fd5b506101f760048036038101906101f2919061102e565b610cf9565b6040516102049190611641565b60405180910390f35b34801561021957600080fd5b50610222610dac565b60405161022f9190611641565b60405180910390f35b34801561024457600080fd5b5061025f600480360381019061025a91906110bc565b610e7f565b005b34801561026d57600080fd5b50610276610fa0565b60405161028391906114c4565b60405180910390f35b600061029782610fc6565b9050803410156102dc576040517f08c379a00000000000000000000000000000000000000000000000000000000081526004016102d390611561565b60405180910390fd5b600081340390503373ffffffffffffffffffffffffffffffffffffffff166108fc829081150290604051600060405180830381858888f19350505050158015610329573d6000803e3d6000fd5b50610332610dac565b831115610374576040517f08c379a000000000000000000000000000000000000000000000000000000000815260040161036b906115c1565b60405180910390fd5b6000809054906101000a900473ffffffffffffffffffffffffffffffffffffffff1673ffffffffffffffffffffffffffffffffffffffff1663a9059cbb85856040518363ffffffff1660e01b81526004016103d0929190611516565b602060405180830381600087803b1580156103ea57600080fd5b505af11580156103fe573d6000803e3d6000fd5b505050506040513d601f19601f820116820180604052508101906104229190611093565b507f627bb58dea9a62387224de2fde8dfe72c3714d8905c0ac43567e87e11e52bb6f838560405161045492919061165c565b60405180910390a150505050565b6060600560003373ffffffffffffffffffffffffffffffffffffffff1673ffffffffffffffffffffffffffffffffffffffff1681526020019081526020016000208054806020026020016040519081016040528092919081815260200182805480156104ed57602002820191906000526020600020905b8154815260200190600101908083116104d9575b5050505050905090565b60045481565b338073ffffffffffffffffffffffffffffffffffffffff16600160009054906101000a900473ffffffffffffffffffffffffffffffffffffffff1673ffffffffffffffffffffffffffffffffffffffff161461058e576040517f08c379a000000000000000000000000000000000000000000000000000000000815260040161058590611621565b60405180910390fd5b6000600880549050116105d6576040517f08c379a00000000000000000000000000000000000000000000000000000000081526004016105cd906115a1565b60405180910390fd5b60006008805490509050600081426040516020016105f4919061146c565b6040516020818303038152906040528051906020012060001c8161061457fe5b06905060006008828154811061062657fe5b906000526020600020015490507ffea99b865d4c67e1b8157453904e9a62f79bcf436e2d3d40c3d42b9472e2be6c816040516106629190611641565b60405180910390a160006006600083815260200190815260200160002060009054906101000a900473ffffffffffffffffffffffffffffffffffffffff1690506000809054906101000a900473ffffffffffffffffffffffffffffffffffffffff1673ffffffffffffffffffffffffffffffffffffffff16635c79febb33836106e9610c26565b6040518463ffffffff1660e01b8152600401610707939291906114df565b602060405180830381600087803b15801561072157600080fd5b505af1158015610735573d6000803e3d6000fd5b505050506040513d601f19601f820116820180604052508101906107599190611093565b505050505050565b600081116107a4576040517f08c379a000000000000000000000000000000000000000000000000000000000815260040161079b90611601565b60405180910390fd5b6107ad33610cf9565b8111156107ef576040517f08c379a00000000000000000000000000000000000000000000000000000000081526004016107e690611581565b60405180910390fd5b6000809054906101000a900473ffffffffffffffffffffffffffffffffffffffff1673ffffffffffffffffffffffffffffffffffffffff16635c79febb33600260009054906101000a900473ffffffffffffffffffffffffffffffffffffffff16846040518463ffffffff1660e01b815260040161086f939291906114df565b602060405180830381600087803b15801561088957600080fd5b505af115801561089d573d6000803e3d6000fd5b505050506040513d601f19601f820116820180604052508101906108c19190611093565b503373ffffffffffffffffffffffffffffffffffffffff166108fc6108e583610fc6565b9081150290604051600060405180830381858888f19350505050158015610910573d6000803e3d6000fd5b507f76503fc4a5bd8f09e2a3fd83fc9b7af73b36abf2f7fe56add012057695a336028133604051610942929190611685565b60405180910390a150565b600160009054906101000a900473ffffffffffffffffffffffffffffffffffffffff1681565b60006004548202905061098533610cf9565b8111156109c7576040517f08c379a00000000000000000000000000000000000000000000000000000000081526004016109be906115e1565b60405180910390fd5b6000809054906101000a900473ffffffffffffffffffffffffffffffffffffffff1673ffffffffffffffffffffffffffffffffffffffff16635c79febb33600160009054906101000a900473ffffffffffffffffffffffffffffffffffffffff16846040518463ffffffff1660e01b8152600401610a47939291906114df565b602060405180830381600087803b158015610a6157600080fd5b505af1158015610a75573d6000803e3d6000fd5b505050506040513d601f19601f82011682018060405250810190610a999190611093565b5060008090505b82811015610c215760006127104233600754604051602001610ac493929190611487565b6040516020818303038152906040528051906020012060001c81610ae457fe5b069050600760008154809291906001019190505550600560003373ffffffffffffffffffffffffffffffffffffffff1673ffffffffffffffffffffffffffffffffffffffff1681526020019081526020016000208190806001815401808255809150506001900390600052602060002001600090919091909150556008819080600181540180825580915050600190039060005260206000200160009091909190915055336006600083815260200190815260200160002060006101000a81548173ffffffffffffffffffffffffffffffffffffffff021916908373ffffffffffffffffffffffffffffffffffffffff1602179055507fda38e56f3c838d1252d7d3ba124e5a1fe4ff0a0e44509d5c9a368ad9ac4f720d8133604051610c0b929190611685565b60405180910390a1508080600101915050610aa0565b505050565b60008060009054906101000a900473ffffffffffffffffffffffffffffffffffffffff1673ffffffffffffffffffffffffffffffffffffffff166370a08231600160009054906101000a900473ffffffffffffffffffffffffffffffffffffffff166040518263ffffffff1660e01b8152600401610ca491906114c4565b60206040518083038186803b158015610cbc57600080fd5b505afa158015610cd0573d6000803e3d6000fd5b505050506040513d601f19601f82011682018060405250810190610cf491906110e5565b905090565b60008060009054906101000a900473ffffffffffffffffffffffffffffffffffffffff1673ffffffffffffffffffffffffffffffffffffffff166370a08231836040518263ffffffff1660e01b8152600401610d5591906114c4565b60206040518083038186803b158015610d6d57600080fd5b505afa158015610d81573d6000803e3d6000fd5b505050506040513d601f19601f82011682018060405250810190610da591906110e5565b9050919050565b60008060009054906101000a900473ffffffffffffffffffffffffffffffffffffffff1673ffffffffffffffffffffffffffffffffffffffff166370a08231600260009054906101000a900473ffffffffffffffffffffffffffffffffffffffff166040518263ffffffff1660e01b8152600401610e2a91906114c4565b60206040518083038186803b158015610e4257600080fd5b505afa158015610e56573d6000803e3d6000fd5b505050506040513d601f19601f82011682018060405250810190610e7a91906110e5565b905090565b338073ffffffffffffffffffffffffffffffffffffffff16600160009054906101000a900473ffffffffffffffffffffffffffffffffffffffff1673ffffffffffffffffffffffffffffffffffffffff1614610f10576040517f08c379a0000000000000000000000000000000000000000000000000000000008152600401610f0790611621565b60405180910390fd5b6000809054906101000a900473ffffffffffffffffffffffffffffffffffffffff1673ffffffffffffffffffffffffffffffffffffffff16631d43cc98836040518263ffffffff1660e01b8152600401610f6a9190611641565b600060405180830381600087803b158015610f8457600080fd5b505af1158015610f98573d6000803e3d6000fd5b505050505050565b600260009054906101000a900473ffffffffffffffffffffffffffffffffffffffff1681565b60006706f05b59d3b2000082029050919050565b600081359050610fe9816117c3565b92915050565b600081519050610ffe816117da565b92915050565b600081359050611013816117f1565b92915050565b600081519050611028816117f1565b92915050565b60006020828403121561104057600080fd5b600061104e84828501610fda565b91505092915050565b6000806040838503121561106a57600080fd5b600061107885828601610fda565b925050602061108985828601611004565b9150509250929050565b6000602082840312156110a557600080fd5b60006110b384828501610fef565b91505092915050565b6000602082840312156110ce57600080fd5b60006110dc84828501611004565b91505092915050565b6000602082840312156110f757600080fd5b600061110584828501611019565b91505092915050565b600061111a8383611437565b60208301905092915050565b61112f81611752565b82525050565b6111466111418261170a565b611788565b82525050565b611155816116f8565b82525050565b6000611166826116be565b61117081856116d6565b935061117b836116ae565b8060005b838110156111ac578151611193888261110e565b975061119e836116c9565b92505060018101905061117f565b5085935050505092915050565b60006111c6602a836116e7565b91507f436f6d707261206d656e6f7320746f6b656e73206f207061676120636f6e206d60008301527fc3a17320657468657273000000000000000000000000000000000000000000006020830152604082019050919050565b600061122c6029836116e7565b91507f4e6f207469656e6573206c6f7320746f6b656e7320717565206465736561732060008301527f6465766f6c7665722e00000000000000000000000000000000000000000000006020830152604082019050919050565b60006112926018836116e7565b91507f4e6f2068617920626f6c65746f7320636f6d707261646f7300000000000000006000830152602082019050919050565b60006112d26024836116e7565b91507f436f6d70726120756e206ec3ba6d65726f20646520746f6b656e73206164656360008301527f7561646f000000000000000000000000000000000000000000000000000000006020830152604082019050919050565b6000611338601c836116e7565b91507f4e656365736974617320636f6d70726172206d617320746f6b656e73000000006000830152602082019050919050565b60006113786030836116e7565b91507f4e6563657369746173206465766f6c76657220756e206ec3ba6d65726f20706f60008301527f73697469766f20646520746f6b656e73000000000000000000000000000000006020830152604082019050919050565b60006113de602a836116e7565b91507f5573746564206e6f207469656e65207065726d69736f7320706172612065737460008301527f612066756e6369c3b36e000000000000000000000000000000000000000000006020830152604082019050919050565b61144081611748565b82525050565b61144f81611748565b82525050565b61146661146182611748565b6117ac565b82525050565b60006114788284611455565b60208201915081905092915050565b60006114938286611455565b6020820191506114a38285611135565b6014820191506114b38284611455565b602082019150819050949350505050565b60006020820190506114d9600083018461114c565b92915050565b60006060820190506114f46000830186611126565b611501602083018561114c565b61150e6040830184611446565b949350505050565b600060408201905061152b600083018561114c565b6115386020830184611446565b9392505050565b60006020820190508181036000830152611559818461115b565b905092915050565b6000602082019050818103600083015261157a816111b9565b9050919050565b6000602082019050818103600083015261159a8161121f565b9050919050565b600060208201905081810360008301526115ba81611285565b9050919050565b600060208201905081810360008301526115da816112c5565b9050919050565b600060208201905081810360008301526115fa8161132b565b9050919050565b6000602082019050818103600083015261161a8161136b565b9050919050565b6000602082019050818103600083015261163a816113d1565b9050919050565b60006020820190506116566000830184611446565b92915050565b60006040820190506116716000830185611446565b61167e602083018461114c565b9392505050565b600060408201905061169a6000830185611446565b6116a76020830184611126565b9392505050565b6000819050602082019050919050565b600081519050919050565b6000602082019050919050565b600082825260208201905092915050565b600082825260208201905092915050565b600061170382611728565b9050919050565b600061171582611728565b9050919050565b60008115159050919050565b600073ffffffffffffffffffffffffffffffffffffffff82169050919050565b6000819050919050565b600061175d82611764565b9050919050565b600061176f82611776565b9050919050565b600061178182611728565b9050919050565b60006117938261179a565b9050919050565b60006117a5826117b6565b9050919050565b6000819050919050565b60008160601b9050919050565b6117cc816116f8565b81146117d757600080fd5b50565b6117e38161171c565b81146117ee57600080fd5b50565b6117fa81611748565b811461180557600080fd5b5056fea2646970667358221220be1fb3f9d06c183941e4144ae863c31bed47a1bcd2b571640bcf5a9cc32b538264736f6c63430006080033608060405234801561001057600080fd5b50604051620013eb380380620013eb8339818101604052810190610034919061009b565b806002819055506002546000803373ffffffffffffffffffffffffffffffffffffffff1673ffffffffffffffffffffffffffffffffffffffff16815260200190815260200160002081905550506100e5565b600081519050610095816100ce565b92915050565b6000602082840312156100ad57600080fd5b60006100bb84828501610086565b91505092915050565b6000819050919050565b6100d7816100c4565b81146100e257600080fd5b50565b6112f680620000f56000396000f3fe608060405234801561001057600080fd5b50600436106100a95760003560e01c8063313ce56711610071578063313ce567146101665780635c79febb1461018457806370a08231146101b457806395d89b41146101e4578063a9059cbb14610202578063dd62ed3e14610232576100a9565b806306fdde03146100ae578063095ea7b3146100cc57806318160ddd146100fc5780631d43cc981461011a57806323b872dd14610136575b600080fd5b6100b6610262565b6040516100c39190611105565b60405180910390f35b6100e660048036038101906100e19190610ead565b61029b565b6040516100f391906110ea565b60405180910390f35b61010461040e565b60405161011191906111a7565b60405180910390f35b610134600480360381019061012f9190610ee9565b610418565b005b610150600480360381019061014b9190610e5e565b610477565b60405161015d91906110ea565b60405180910390f35b61016e61085e565b60405161017b91906111c2565b60405180910390f35b61019e60048036038101906101999190610e5e565b610863565b6040516101ab91906110ea565b60405180910390f35b6101ce60048036038101906101c99190610df9565b610a7c565b6040516101db91906111a7565b60405180910390f35b6101ec610ac4565b6040516101f99190611105565b60405180910390f35b61021c60048036038101906102179190610ead565b610afd565b60405161022991906110ea565b60405180910390f35b61024c60048036038101906102479190610e22565b610d15565b60405161025991906111a7565b60405180910390f35b6040518060400160405280601181526020017f4552433230426c6f636b636861696e415a00000000000000000000000000000081525081565b60008060003373ffffffffffffffffffffffffffffffffffffffff1673ffffffffffffffffffffffffffffffffffffffff1681526020019081526020016000205482111561031e576040517f08c379a000000000000000000000000000000000000000000000000000000000815260040161031590611147565b60405180910390fd5b81600160003373ffffffffffffffffffffffffffffffffffffffff1673ffffffffffffffffffffffffffffffffffffffff16815260200190815260200160002060008573ffffffffffffffffffffffffffffffffffffffff1673ffffffffffffffffffffffffffffffffffffffff168152602001908152602001600020819055508273ffffffffffffffffffffffffffffffffffffffff163373ffffffffffffffffffffffffffffffffffffffff167f8c5be1e5ebec7d5bd14f71427d1e84f3dd0314c0f7b2291e5b200ac8c7c3b925846040516103fc91906111a7565b60405180910390a36001905092915050565b6000600254905090565b80600260008282540192505081905550806000803373ffffffffffffffffffffffffffffffffffffffff1673ffffffffffffffffffffffffffffffffffffffff1681526020019081526020016000206000828254019250508190555050565b60008060008573ffffffffffffffffffffffffffffffffffffffff1673ffffffffffffffffffffffffffffffffffffffff168152602001908152602001600020548211156104fa576040517f08c379a00000000000000000000000000000000000000000000000000000000081526004016104f190611167565b60405180910390fd5b600160008573ffffffffffffffffffffffffffffffffffffffff1673ffffffffffffffffffffffffffffffffffffffff16815260200190815260200160002060003373ffffffffffffffffffffffffffffffffffffffff1673ffffffffffffffffffffffffffffffffffffffff168152602001908152602001600020548211156105b9576040517f08c379a00000000000000000000000000000000000000000000000000000000081526004016105b090611127565b60405180910390fd5b61060a826000808773ffffffffffffffffffffffffffffffffffffffff1673ffffffffffffffffffffffffffffffffffffffff16815260200190815260200160002054610d9c90919063ffffffff16565b6000808673ffffffffffffffffffffffffffffffffffffffff1673ffffffffffffffffffffffffffffffffffffffff168152602001908152602001600020819055506106db82600160008773ffffffffffffffffffffffffffffffffffffffff1673ffffffffffffffffffffffffffffffffffffffff16815260200190815260200160002060003373ffffffffffffffffffffffffffffffffffffffff1673ffffffffffffffffffffffffffffffffffffffff16815260200190815260200160002054610d9c90919063ffffffff16565b600160008673ffffffffffffffffffffffffffffffffffffffff1673ffffffffffffffffffffffffffffffffffffffff16815260200190815260200160002060003373ffffffffffffffffffffffffffffffffffffffff1673ffffffffffffffffffffffffffffffffffffffff168152602001908152602001600020819055506107ac826000808673ffffffffffffffffffffffffffffffffffffffff1673ffffffffffffffffffffffffffffffffffffffff16815260200190815260200160002054610db390919063ffffffff16565b6000808573ffffffffffffffffffffffffffffffffffffffff1673ffffffffffffffffffffffffffffffffffffffff168152602001908152602001600020819055508273ffffffffffffffffffffffffffffffffffffffff168473ffffffffffffffffffffffffffffffffffffffff167fddf252ad1be2c89b69c2b068fc378daa952ba7f163c4a11628f55a4df523b3ef8460405161084b91906111a7565b60405180910390a3600090509392505050565b600281565b60008060008573ffffffffffffffffffffffffffffffffffffffff1673ffffffffffffffffffffffffffffffffffffffff168152602001908152602001600020548211156108e6576040517f08c379a00000000000000000000000000000000000000000000000000000000081526004016108dd90611187565b60405180910390fd5b610937826000808773ffffffffffffffffffffffffffffffffffffffff1673ffffffffffffffffffffffffffffffffffffffff16815260200190815260200160002054610d9c90919063ffffffff16565b6000808673ffffffffffffffffffffffffffffffffffffffff1673ffffffffffffffffffffffffffffffffffffffff168152602001908152602001600020819055506109ca826000808673ffffffffffffffffffffffffffffffffffffffff1673ffffffffffffffffffffffffffffffffffffffff16815260200190815260200160002054610db390919063ffffffff16565b6000808573ffffffffffffffffffffffffffffffffffffffff1673ffffffffffffffffffffffffffffffffffffffff168152602001908152602001600020819055508273ffffffffffffffffffffffffffffffffffffffff168473ffffffffffffffffffffffffffffffffffffffff167fddf252ad1be2c89b69c2b068fc378daa952ba7f163c4a11628f55a4df523b3ef84604051610a6991906111a7565b60405180910390a3600190509392505050565b60008060008373ffffffffffffffffffffffffffffffffffffffff1673ffffffffffffffffffffffffffffffffffffffff168152602001908152602001600020549050919050565b6040518060400160405280600681526020017f455243323041000000000000000000000000000000000000000000000000000081525081565b60008060003373ffffffffffffffffffffffffffffffffffffffff1673ffffffffffffffffffffffffffffffffffffffff16815260200190815260200160002054821115610b80576040517f08c379a0000000000000000000000000000000000000000000000000000000008152600401610b7790611187565b60405180910390fd5b610bd1826000803373ffffffffffffffffffffffffffffffffffffffff1673ffffffffffffffffffffffffffffffffffffffff16815260200190815260200160002054610d9c90919063ffffffff16565b6000803373ffffffffffffffffffffffffffffffffffffffff1673ffffffffffffffffffffffffffffffffffffffff16815260200190815260200160002081905550610c64826000808673ffffffffffffffffffffffffffffffffffffffff1673ffffffffffffffffffffffffffffffffffffffff16815260200190815260200160002054610db390919063ffffffff16565b6000808573ffffffffffffffffffffffffffffffffffffffff1673ffffffffffffffffffffffffffffffffffffffff168152602001908152602001600020819055508273ffffffffffffffffffffffffffffffffffffffff163373ffffffffffffffffffffffffffffffffffffffff167fddf252ad1be2c89b69c2b068fc378daa952ba7f163c4a11628f55a4df523b3ef84604051610d0391906111a7565b60405180910390a36001905092915050565b6000600160008473ffffffffffffffffffffffffffffffffffffffff1673ffffffffffffffffffffffffffffffffffffffff16815260200190815260200160002060008373ffffffffffffffffffffffffffffffffffffffff1673ffffffffffffffffffffffffffffffffffffffff16815260200190815260200160002054905092915050565b600082821115610da857fe5b818303905092915050565b600080828401905083811015610dc557fe5b8091505092915050565b600081359050610dde81611292565b92915050565b600081359050610df3816112a9565b92915050565b600060208284031215610e0b57600080fd5b6000610e1984828501610dcf565b91505092915050565b60008060408385031215610e3557600080fd5b6000610e4385828601610dcf565b9250506020610e5485828601610dcf565b9150509250929050565b600080600060608486031215610e7357600080fd5b6000610e8186828701610dcf565b9350506020610e9286828701610dcf565b9250506040610ea386828701610de4565b9150509250925092565b60008060408385031215610ec057600080fd5b6000610ece85828601610dcf565b9250506020610edf85828601610de4565b9150509250929050565b600060208284031215610efb57600080fd5b6000610f0984828501610de4565b91505092915050565b610f1b8161120b565b82525050565b6000610f2c826111dd565b610f3681856111e8565b9350610f4681856020860161124e565b610f4f81611281565b840191505092915050565b6000610f676028836111e8565b91507f4e6f207469656e6520657365206ec3ba6d65726f20646520746f6b656e73206460008301527f656c656761646f730000000000000000000000000000000000000000000000006020830152604082019050919050565b6000610fcd6033836111e8565b91507f4e6f20646973706f6e6520646520737566696369656e74657320746f6b656e7360008301527f2070617261206573746520747261737061736f000000000000000000000000006020830152604082019050919050565b60006110336024836111e8565b91507f456c206f776e6572206e6f207469656e6520746f6b656e73207375666963696560008301527f6e746573000000000000000000000000000000000000000000000000000000006020830152604082019050919050565b60006110996020836111e8565b91507f4e6f20646973706f6e6520646520746f6b656e7320737566696369656e7465736000830152602082019050919050565b6110d581611237565b82525050565b6110e481611241565b82525050565b60006020820190506110ff6000830184610f12565b92915050565b6000602082019050818103600083015261111f8184610f21565b905092915050565b6000602082019050818103600083015261114081610f5a565b9050919050565b6000602082019050818103600083015261116081610fc0565b9050919050565b6000602082019050818103600083015261118081611026565b9050919050565b600060208201905081810360008301526111a08161108c565b9050919050565b60006020820190506111bc60008301846110cc565b92915050565b60006020820190506111d760008301846110db565b92915050565b600081519050919050565b600082825260208201905092915050565b600061120482611217565b9050919050565b60008115159050919050565b600073ffffffffffffffffffffffffffffffffffffffff82169050919050565b6000819050919050565b600060ff82169050919050565b60005b8381101561126c578082015181840152602081019050611251565b8381111561127b576000848401525b50505050565b6000601f19601f8301169050919050565b61129b816111f9565b81146112a657600080fd5b50565b6112b281611237565b81146112bd57600080fd5b5056fea2646970667358221220fdbb506537cd6668d906f4857c868cbef990c9d2cd70201fbea19658f64754ca64736f6c63430006080033",
  "immutableReferences": {},
  "source": "// SPDX-License-Identifier: MIT\r\npragma solidity >=0.4.4 <0.8.0;\r\npragma experimental ABIEncoderV2;\r\nimport \"./ERC20.sol\";\r\n\r\ncontract Loteria {\r\n    ERC20Basic private token;\r\n    address public ownerBote;\r\n    address public contrato;\r\n    uint private numTokensCreated = 10000;\r\n    event tokensBuyed (uint, address);\r\n\r\n    uint public ticketPrice = 5;\r\n    mapping (address => uint []) ticketsByPerson;\r\n    mapping (uint => address) ticketPerson;\r\n    uint randNonce = 0;\r\n    uint[] tickets;\r\n    event buyedTicket(uint, address);\r\n    event winnerTicket(uint);    \r\n    event returnedTokens(uint, address);\r\n\r\n    constructor() public {\r\n        token = new ERC20Basic(numTokensCreated);\r\n        ownerBote = msg.sender;\r\n        contrato = address(this);\r\n    }\r\n\r\n    function getTokensPrice(uint _numTokens) internal pure returns(uint) {\r\n        return _numTokens * (0.5 ether);\r\n    }\r\n\r\n    function addTokens(uint _numTokens) public isOwner(msg.sender) {\r\n        token.increaseTotalSupply(_numTokens);\r\n    }\r\n\r\n    function getBalanceContrato() public view returns(uint) {\r\n        return token.balanceOf(contrato);\r\n    }\r\n\r\n    function buyTokens(address _propietario, uint _numTokens) public payable {\r\n       uint cost = getTokensPrice(_numTokens);\r\n       require(msg.value >= cost, \"Compra menos tokens o paga con ms ethers\");\r\n       uint returnValue = msg.value - cost;\r\n       msg.sender.transfer(returnValue);\r\n       require(_numTokens <= getBalanceContrato(), \"Compra un nmero de tokens adecuado\");\r\n       token.transfer(_propietario, _numTokens);\r\n       emit tokensBuyed(_numTokens, _propietario);\r\n    }\r\n\r\n    function getBalanceBote() public view returns(uint) {\r\n        return token.balanceOf(ownerBote);\r\n    }\r\n\r\n    function getBalanceMisTokens(address _propietario) public view returns (uint) {\r\n        return token.balanceOf(_propietario);\r\n    }\r\n    \r\n    modifier isOwner(address _direccion) {\r\n        require(ownerBote == _direccion, \"Usted no tiene permisos para esta funcin\");\r\n        _;\r\n    }\r\n\r\n    function buyTicket(uint _numTickets) public {\r\n        uint _totalPrice = _numTickets * ticketPrice;\r\n        require(_totalPrice <= getBalanceMisTokens(msg.sender), \"Necesitas comprar mas tokens\");\r\n        token.transferLoteria(msg.sender, ownerBote, _totalPrice);\r\n        for (uint i = 0; i < _numTickets; i++) {\r\n            uint random = uint(keccak256(abi.encodePacked(now, msg.sender, randNonce))) % 10000;\r\n            randNonce++;\r\n            ticketsByPerson[msg.sender].push(random);\r\n            tickets.push(random);\r\n            ticketPerson[random] = msg.sender;\r\n            emit buyedTicket(random, msg.sender);\r\n        }        \r\n    }\r\n\r\n    function getMisTickets() public view returns(uint [] memory) {\r\n        return ticketsByPerson[msg.sender];\r\n    }\r\n\r\n    function generateWinner() public isOwner(msg.sender) {\r\n        require(tickets.length > 0, \"No hay boletos comprados\");\r\n        uint numTicketsBuyed = tickets.length;\r\n        uint selectedIndexTicket = uint(uint(keccak256(abi.encodePacked(now))) % numTicketsBuyed);\r\n        uint winnerTicketValue = tickets[selectedIndexTicket];\r\n        emit winnerTicket(winnerTicketValue);\r\n        address winnerAddress = ticketPerson[winnerTicketValue];\r\n        token.transferLoteria(msg.sender, winnerAddress, getBalanceBote());\r\n    }\r\n\r\n    function returnTokens(uint _numTokens) public payable {\r\n        require(_numTokens > 0, \"Necesitas devolver un nmero positivo de tokens\");\r\n        require(_numTokens <= getBalanceMisTokens(msg.sender), \"No tienes los tokens que deseas devolver.\");\r\n        token.transferLoteria(msg.sender, contrato, _numTokens);\r\n        msg.sender.transfer(getTokensPrice(_numTokens));\r\n        emit returnedTokens(_numTokens, msg.sender);\r\n    }\r\n}",
  "sourcePath": "C:\\Users\\Antonio\\Documents\\cursos_udemy\\Blockchain\\Dapps con Tokens NFT en Ethereum usando Truffle y React\\misCodigos\\loteria\\DApp_loteria\\src\\contracts\\loteria.sol",
  "compiler": {
    "name": "solc",
    "version": "0.6.8+commit.0bbfe453.Emscripten.clang"
  },
  "schemaVersion": "3.4.7",
  "updatedAt": "2022-05-26T19:51:38.883Z",
  "devdoc": {
    "methods": {}
  },
  "userdoc": {
    "methods": {}
  }
}